:1000000004C1000027C1000025C1000023C1000079
:1000100021C100001FC100001DC100001BC1000064
:1000200019C1000017C1000015C1000013C1000074
:1000300011C100000FC100005AC700000BC1000031
:1000400009C1000007C1000005C1000003C1000094
:1000500001C10000FFC00000FDC00000FBC00000A7
:10006000F9C00000F7C00000F5C00000F3C00000B8
:10007000F1C00000EFC00000EDC00000EBC00000C8
:10008000E9C00000E7C00000E5C00000E3C00000D8
:10009000E1C00000DFC00000DDC00000DBC00000E8
:1000A000D9C00000D7C00000D5C00000D3C00000F8
:1000B000D1C00000CFC00000CDC00000CBC0000008
:1000C000C9C00000C7C00000C5C00000C3C0000018
:1000D000C1C00000BFC00000BDC00000BBC0000028
:1000E000B9C00000B7C00000B5C00000B3C0000038
:1000F000B1C00000AFC00000ADC00000ABC0000048
:10010000A9C00000A7C00000A5C00000A3C0000057
:10011000A1C000009FC000009DC000009BC0000067
:1001200099C0000097C0000095C0000093C0000077
:1001300091C000008FC000008DC000008BC0000087
:1001400089C0000087C0000085C0000083C0000097
:1001500081C000007FC000007DC000007BC00000A7
:1001600079C0000077C0000075C0000073C00000B7
:1001700071C000006FC000006DC000006BC00000C7
:1001800069C0000067C0000065C0000063C00000D7
:1001900061C000005FC000005DC000005BC00000E7
:1001A00059C0000057C0000055C0000053C00000F7
:1001B00051C000004FC000004DC000004BC0000007
:1001C00049C0000047C0000045C0000043C0000017
:1001D00041C000003FC000003DC000003BC0000027
:1001E00039C0000037C0000035C0000033C0000037
:1001F00031C000000C9416150C94D9150C100F107A
:100200001210151018101B101E1011241FBECFEF56
:10021000CDBFDFE3DEBF00E00CBF18BE19BE1ABEC3
:100220001BBE12E2A0E0B0E2E4EAF7E300E00BBF9D
:1002300002C007900D92A03AB107D9F71BBE27E282
:10024000A0EAB2E201C01D92A235B207E1F7D5D60D
:100250000C94D01BD5CE3BB78BBFFB0186913BBF27
:1002600008953BB78BBFFB01879196913BBF0895E3
:1002700042E07CC041E07AC08093C001882780932F
:10028000C1018093C20147E061D0CB010895809302
:10029000C40148E05BC08091D00108953BB748E1BC
:1002A0000D9417003BB74AE10D9417003BB740E2AD
:1002B0000D9417003BB78BBFCB0142E20D941700A2
:1002C0003BB76BBFFA0119BEDC0140E04093CA01A5
:1002D00050E8879197918D939D935A95D1F73BBFA5
:1002E00008953BB78BBFCB0144E20D9417003BB799
:1002F0008BBFCB0145E20D9417003BB746E20D944E
:1003000017003BB78BBFCB014AE20D9417003BB7F8
:100310008BBFCB014CE20D9417003BB78BBFCB01D9
:100320004DE20D94170048E311C049E30FC028EDDA
:100330002093340021E02093CC0108952091CF0137
:1003400027FDFCCF22272093CA0108954093CA01BC
:1003500028ED31E0209334003093CB016091C4014B
:100360007091C5018091C60199270895FC014093C1
:10037000CA01849108958130E1F030F0823071F14A
:10038000833009F440C0089586ED90E29F938F93E7
:100390008EED90E29F938F938EEE90E29F938F93DA
:1003A0000E94F9180F900F900F900F900F900F90E0
:1003B000089586EF90E29F938F938EED90E29F9346
:1003C0008F938EEE90E29F938F930E94F9180F9077
:1003D0000F900F900F900F900F9008958EEF90E276
:1003E0009F938F938EED90E29F938F938EEE90E28A
:1003F0009F938F930E94F9180F900F900F900F907A
:100400000F900F9008951F9283E08F938EED90E2EE
:100410009F938F938EEE90E29F938F930E94F91893
:100420000F900F900F900F900F900F9008958130C4
:10043000E1F030F0823071F1833009F440C008956A
:1004400086ED90E29F938F9384E091E29F938F9348
:100450008EEE90E29F938F930E94F9180F900F9069
:100460000F900F900F900F90089586EF90E29F935A
:100470008F9384E091E29F938F938EEE90E29F930F
:100480008F930E94F9180F900F900F900F900F907C
:100490000F9008958EEF90E29F938F9384E091E206
:1004A0009F938F938EEE90E29F938F930E94F91803
:1004B0000F900F900F900F900F900F9008951F9234
:1004C00083E08F9384E091E29F938F938EEE90E28E
:1004D0009F938F930E94F9180F900F900F900F9099
:1004E0000F900F900895CF93DF93EC0186E191E296
:1004F0009F938F930E94F91867E371E2CE010E94E7
:10050000F0180F900F90892BC9F48091A8228130A8
:1005100019F081E030DF42C187E391E29F938F932E
:100520008DE391E29F938F930E94F91881E080936D
:10053000A7220F900F900F900F9028C164E471E2F2
:10054000CE010E94F018892B89F484E491E29F93F4
:100550008F938DE391E29F938F930E94F9181092ED
:10056000A7220F900F900F900F9010C16BE471E2D3
:10057000CE010E94F018892BB1F48091A822882323
:1005800019F080E0F8DE0AC18BE491E29F938F932B
:100590008DE391E29F938F930E94F9180F900F9033
:1005A0000F900F90F3C060E571E2CE010E94F01849
:1005B000892BB1F48091A822882319F080E0DBDE3A
:1005C000EDC080E591E29F938F938DE391E29F933D
:1005D0008F930E94F9180F900F900F900F90D6C034
:1005E00066E571E2CE010E94F018892BB1F480918A
:1005F000A822882319F080E0BEDED0C086E591E213
:100600009F938F938DE391E29F938F930E94F918AC
:100610000F900F900F900F90B9C06BE571E2CE0173
:100620000E94F018892BB1F48091A822882319F038
:1006300080E0A1DEB3C08BE591E29F938F938DE3C1
:1006400091E29F938F930E94F9180F900F900F9053
:100650000F909CC061E671E2CE010E94F018892BD8
:10066000A9F48091A822813011F4E1DE97C081E6DF
:1006700091E29F938F938DE391E29F938F930E94DA
:10068000F9180F900F900F900F9080C067E671E2FD
:10069000CE010E94F018892B79F487E691E29F93AE
:1006A0008F938DE391E29F938F930E94F9180F909F
:1006B0000F900F900F906AC06CE671E2CE010E941D
:1006C000F018892B79F48CE691E29F938F938DE358
:1006D00091E29F938F930E94F9180F900F900F90C3
:1006E0000F9054C062E771E2CE010E94F018892B8E
:1006F000B1F48091A822882319F080E03CDE4EC03E
:1007000082E791E29F938F938DE391E29F938F9382
:100710000E94F9180F900F900F900F9037C066E766
:1007200071E2CE010E94F018892BB1F48091A822C9
:10073000813019F081E01FDE31C086E791E29F939E
:100740008F938DE391E29F938F930E94F9180F90FE
:100750000F900F900F901AC06BE771E2CE010E94CC
:10076000F018892B79F48BE791E29F938F938DE3B7
:1007700091E29F938F930E94F9180F900F900F9022
:100780000F9004C083E891E20E940C198091A82286
:10079000833021F484E991E20E940C19DF91CF911A
:1007A00008950F931F93CF93DF9300D0CDB7DEB79B
:1007B0008C016BE971E20E94F018892B01F58BE93D
:1007C00091E29F938F938DE391E29F938F930E9489
:1007D000F91823E030E08E010F5F1F4FA80160E0A1
:1007E00070E0CB010E94C0171F930F9380EA91E243
:1007F0009F938F930E94F918CDBFDEBF22C167EA95
:1008000071E2C8010E94F018892B79F487EA91E21D
:100810009F938F938DE391E29F938F930E94F9189A
:100820000F900F900F900F900CC16CEA71E2C8010D
:100830000E94F018892B79F48CEA91E29F938F93B0
:100840008DE391E29F938F930E94F9180F900F9080
:100850000F900F90F6C06FEA71E2C8010E94F01885
:10086000892B79F48FEA91E29F938F938DE391E244
:100870009F938F930E94F9180F900F900F900F90F5
:10088000E0C062EB71E2C8010E94F018892B79F494
:1008900082EB91E29F938F938DE391E29F938F93ED
:1008A0000E94F9180F900F900F900F90CAC066EB3E
:1008B00071E2C8010E94F018892B79F486EB91E26D
:1008C0009F938F938DE391E29F938F930E94F918EA
:1008D0000F900F900F900F90B4C069EB71E2C801B8
:1008E0000E94F018892B79F489EB91E29F938F9302
:1008F0008DE391E29F938F930E94F9180F900F90D0
:100900000F900F909EC06EEB71E2C8010E94F0182C
:10091000892B79F48EEB91E29F938F938DE391E293
:100920009F938F930E94F9180F900F900F900F9044
:1009300088C063EC71E2C8010E94F018892B79F439
:1009400083EC91E29F938F938DE391E29F938F933A
:100950000E94F9180F900F900F900F9072C068ECE2
:1009600071E2C8010E94F018892B79F488EC91E2B9
:100970009F938F938DE391E29F938F930E94F91839
:100980000F900F900F900F905CC06DEC71E2C8015A
:100990000E94F018892B79F48DEC91E29F938F934C
:1009A0008DE391E29F938F930E94F9180F900F901F
:1009B0000F900F9046C062ED71E2C8010E94F018DE
:1009C000892B79F482ED91E29F938F938DE391E2ED
:1009D0009F938F930E94F9180F900F900F900F9094
:1009E00030C068ED71E2C8010E94F018892B79F4DB
:1009F00088ED91E29F938F938DE391E29F938F9384
:100A00000E94F9180F900F900F900F901AC06EED82
:100A100071E2C8010E94F018892B79F48EED91E201
:100A20009F938F938DE391E29F938F930E94F91888
:100A30000F900F900F900F9004C083EE91E20E94F0
:100A40000C192396CDBFDEBFDF91CF911F910F917F
:100A50000895FF920F931F93CF93DF93EC01F62E2F
:100A6000172F86E191E29F938F930E94F9186BE90B
:100A700071E2CE010E94F0180F900F90892BE9F4DB
:100A80001F93FF928BE991E29F938F938AEF91E2FC
:100A90009F938F930E94F91800E023E030E04F2DE0
:100AA000512F60E070E0CB010E94DA170F900F9099
:100AB0000F900F900F900F90C8C069EB71E2CE01BC
:100AC0000E94F018892BB1F48091A822882319F094
:100AD00080E051DCBAC089EB91E29F938F938DE364
:100AE00091E29F938F930E94F9180F900F900F90AF
:100AF0000F90ABC063EC71E2CE010E94F018892B1D
:100B0000B1F48091A822882319F080E034DC9DC0E4
:100B100083EC91E29F938F938DE391E29F938F9368
:100B20000E94F9180F900F900F900F908EC068ECF4
:100B300071E2CE010E94F018892BB1F48091A822B5
:100B4000882319F080E017DC80C088EC91E29F9345
:100B50008F938DE391E29F938F930E94F9180F90EA
:100B60000F900F900F9071C06DEC71E2CE010E945A
:100B7000F018892BB1F48091A822882319F080E025
:100B8000FADB63C08DEC91E29F938F938DE391E24A
:100B90009F938F930E94F9180F900F900F900F90D2
:100BA00054C062ED71E2CE010E94F018892B79F4F5
:100BB00082ED91E29F938F938DE391E29F938F93C8
:100BC0000E94F9180F900F900F900F903EC06EED9D
:100BD00071E2CE010E94F018892BB1F48091A82215
:100BE000882319F080E0C7DB30C08EED91E29F933F
:100BF0008F938DE391E29F938F930E94F9180F904A
:100C00000F900F900F9021C069E072E2CE010E9418
:100C1000F018892BB1F48091A822882319F080E084
:100C2000AADB13C089E092E29F938F938DE391E258
:100C30009F938F930E94F9180F900F900F900F9031
:100C400004C08EE092E20E940C19DF91CF911F91B7
:100C50000F91FF9008959FE9980F9A3108F4805200
:100C60000895F9DF9091A122923041F128F499235F
:100C700051F0913061F00895933009F454C09430EC
:100C800009F45BC0089581E08093A1220895843522
:100C900091F482E08093A12288E0EDE2F5E2DF01A9
:100CA0001D928A95E9F780E2EDE0F5E2DF011D9201
:100CB0008A95E9F708951092A12208958F3331F4AF
:100CC0008093352583E08093A12208958D3341F4EC
:100CD0001092A0228093352584E08093A12208956C
:100CE00091ED980F9C3288F49091A02298306CF48A
:100CF000E091A02291E09E0F9093A0220E2E000C76
:100D0000FF0BE35DFA4D808308958D3091F580915E
:100D1000A022181674F51092A0228DE295E2E3DB72
:100D20001092A12208958D3021F51092A0228DE21B
:100D300095E237DD1092A12208958D3089F09091CF
:100D4000A0229032B4F4E091A02291E09E0F909303
:100D5000A0220E2E000CFF0BE35FFA4D8083089556
:100D60001092A0226DE075E28DE295E272DE1092A3
:100D7000A1220895082E000C990B8CC4089581E0DF
:100D80008093A22208951092A22208952F923F925A
:100D90004F925F926F927F928F929F92AF92BF928B
:100DA000CF92DF92EF92FF920F931F93CF93DF9337
:100DB000582E80E1851518F46894552454F81F9234
:100DC0005F9283E292E29F938F930E94F9180F90B3
:100DD0000F900F900F90552009F46BC0C0E0D0E049
:100DE0000F2EF6E3AF2EF6E2BF2EF02D0F2EF1E41C
:100DF000CF2EF2E2DF2EF02D0F2EF8E6EF2EF2E2EC
:100E0000FF2EF02D4C2EF50180E091E0119201971C
:100E1000E9F706E315E2812C912C2C2E3D2EF801EA
:100E200081928F01722C632CC40199279F938F9319
:100E30009F928F92DF93CF93DF92CF920E94F91807
:100E40009FEF891A990AEDB7FEB73896EDBFFEBF3E
:100E50008114F1E09F0619F786E395E20F940400F0
:100E6000842DEDD0642DC501F9D080E692E20E9478
:100E70000C198501812C912CF80181918F011F9211
:100E80008F939F928F926F927F92FF92EF920E9428
:100E9000F918FFEF8F1A9F0A8DB79EB708968DBF7E
:100EA0009EBF811491E0990639F72196C51508F483
:100EB000A9CF86E892E20E940C19DF91CF911F9191
:100EC0000F91FF90EF90DF90CF90BF90AF909F90E9
:100ED0008F907F906F905F904F903F902F900895EC
:100EE00050D391E09093A322BCCE089508951F9211
:100EF0000F920FB60F92112408B60F9218BE09B6C2
:100F00000F9219BE0BB60F921BBE2F933F934F93B8
:100F10005F936F937F938F939F93AF93BF93EF9361
:100F2000FF938091A6228F5F8093A6228091A622B4
:100F30008D37B9F581E0809327061092A622809123
:100F4000A722882371F18091A4229091A5220E946A
:100F5000AF172091A4223091A5221F928F933F9327
:100F60002F938CE892E29F938F930E94F9188091BF
:100F7000A4229091A52201968093A4229093A52269
:100F80008091A4229091A5220F900F900F900F9026
:100F90000F900F908115954020F01092A42210928E
:100FA000A522FF91EF91BF91AF919F918F917F917A
:100FB0006F915F914F913F912F910F900BBE0F90CA
:100FC00009BE0F9008BE0F900FBE0F901F9018958E
:100FD00061E083E00E945417E0E0F8E08EEE92E0DA
:100FE00086A397A381E086831782148685E0808399
:100FF00011821282138214820895C7E0C0932006E2
:10100000F8940E94E116E4DF2ED480E090E2809311
:101010004E2790934F27C093A20081E08093A8228F
:10102000ECECF1E080818860808378948091A32249
:101030008823E1F383E0AADE1092A322F7CF682F82
:1010400070E0762F6627CB01A0E0B0E0BC01CD01B7
:1010500070528E4F9F4F4BD971C90895462F50E063
:10106000542F442760E070E050526E4F7F4F28C9E4
:1010700008958091BE2381508093BE23089580E01F
:10108000089580E00895809136278823CCF48076F7
:101090008032B9F5809137278132A9F580913C27BC
:1010A00090913D27079789F5E6E3F7E28CEC93E210
:1010B0008087918787E090E08287938781E0089519
:1010C0008076803221F580913727803221F082327C
:1010D00001F180E0089580913C2790913D2707978A
:1010E000D1F4E6E3F7E28DE898E0848795878CEC0D
:1010F00093E28087918787E090E08287938781E001
:10110000089580E0089580E0089580E0089580E0EB
:10111000089581E0089580E0089508951092BE2317
:101120001092CA231092CB23E0ECF3E281EA808391
:1011300080E28183128213821482158282E090E021
:101140008683978310861186ECECF3E280E092ECC4
:10115000A1E0B0E080839183A283B38314821582DF
:1011600088E086830CDE882329F09091BE239F5F60
:101170009093BE230895FF920F931F93CF93DF9315
:101180001F92CDB7DEB78091AC2281119EC00E9424
:10119000DC12882351F00091AD221091AE220E9402
:1011A000E9120817190759F490C00091AD22109167
:1011B000AE220E94E4120817190709F486C08FB7FF
:1011C0008983F89419810091AF22E02FF0E0EE0FAF
:1011D000FF1FE055FD4D80819181892B09F580919C
:1011E000A9229091AA2201968093A9229093AA22E3
:1011F0000E94DC12811107C08091A9229091AA223D
:101200008436910558F00E94DC12882349F08091C1
:10121000A9229091AA228032934010F41FBF55C09A
:101220001092A9221092AA228091AB22811106C0AD
:1012300081E0011180E08093AF2204C081E00111C0
:1012400080E0082F81E08093AC221FBF10E0F801FE
:10125000EE0FFF1FE055FD4DFF24F3948081918137
:101260008034910509F4F12CFF2091F00E94DC12EA
:10127000882339F00E94E9128093AD229093AE2228
:101280000BC00E94E4128093AD229093AE2204C062
:101290001092AD221092AE22F801EE0FFF1FE05522
:1012A000FD4D20813181A801002456954795079472
:1012B000569547950794542F402D4C545D4D0FE69D
:1012C00019E06F2D81E80E94CD130F90DF91CF912F
:1012D0001F910F91FF90089580E04DCF08958111E7
:1012E00019C02091AF2281E090E0222311F080E02C
:1012F00090E0880F991FFC01E055FD4D108211828E
:101300001092AB221092AC22672B11F080E0EEDD40
:1013100080E031CF08958091BD2381508093BD231B
:101320008091BD2330DD1092BC230895CF93DF93CD
:101330001F92CDB7DEB78FB78983F894498120918A
:10134000352330913623E0913723F0E0EE0FFF1F75
:10135000E85CFC4D808191814FBF821B930B0F9005
:10136000DF91CF910895E2DF21E0892B09F420E09D
:10137000822F08950F931F93CF93DF931F92CDB7C2
:10138000DEB78FB78983F8949981209137238091B4
:101390003423811110C06091352370913623022FC0
:1013A00010E0F801EE0FFF1FE85CFC4D4081518119
:1013B0006417750718F49FBF80E027C0109235238B
:1013C0001092362381E0211180E08093372381E061
:1013D000809334239FBF80E0C6DF882311F080E034
:1013E0007FDDA801002456954795079456954795AB
:1013F0000794542F402D445C5C4D0DE31AE020E42B
:1014000030E061E082E00E94CD130F90DF91CF9138
:101410001F910F9108951092BD231092AC2210924B
:10142000AB221092AF22E0EBF2E210821182128224
:1014300013821092AD221092AE2280E09CDE1092B8
:10144000342310923723E8E3F3E2108211821282F0
:101450001382109235231092362380E08BDF88238D
:1014600059F09091BD239F5F9093BD239091BD2330
:10147000913011F49093BC2308950F931F93811121
:1014800029C080913723E1E08111E0E0842F6115CC
:101490007105A9F4F0E00024F695E7950794F69518
:1014A000E7950794FE2FE02DAF01445C5C4D0DE302
:1014B0001AE020E430E061E00E94CD130BC0F0E0C0
:1014C000EE0FFF1FE85CFC4D6083718310923423A4
:1014D00080E050DF1F910F910895EF92FF921F93CC
:1014E000CF93DF931F92CDB7DEB711E08091D22367
:1014F000893009F010E040E050E08FB78983F8941C
:10150000A98120913523309136238091372390E0B3
:10151000FC01EE0FFF1FE85CFC4D60817181AFBFE5
:101520002617370730F08091BC238111E6CF90E079
:1015300021C0FC010024F695E7950794F695E79500
:101540000794FE2FE02DE20FF31FE45CFC4D808139
:101550007A01E82A2F5F3F4F2093352330933623BB
:1015600080E008DF112321F05E2D442710E0C5CF75
:101570008E2D9F2D0F90DF91CF911F91FF90EF90B7
:10158000089580E0AACF0895CF93DF931F92CDB73F
:10159000DEB78FB78983F89499818091AF22E82FC5
:1015A000F0E0EE0FFF1FE055FD4D2081318120342A
:1015B000310589F44091AC2241110DC04091AB221C
:1015C000411109C021E02093AB22811120E020933A
:1015D000AF2220E030E09FBF80E490E0821B930BBD
:1015E0000F90DF91CF910895CFDF21E0892B09F48F
:1015F00020E0822F0895FF920F931F93CF93DF93E4
:101600001F92CDB7DEB7F62E172F01E08091D223BF
:10161000893009F000E080E0E7DF811107C08091A8
:10162000BC238111F8CF80E090E02DC08FB7898373
:10163000F8942981E091AF22F0E0DF01AA0FBB1FEF
:10164000A055BD4D8D919C911197AC014F5F5F4F9F
:101650004D935C930024F695E7950794F695E795EE
:101660000794FE2FE02D8E0F9F1FFC01EC54FD4DC3
:10167000F0822FBF002329F0F12E110F110B00E093
:10168000CACF81E090E00F90DF91CF911F910F9131
:10169000FF900895BC0180E0AECF0895E091D8237B
:1016A000F091D9230190F081E02D228133812E0F1A
:1016B0003F1FFC014081E40FF11DE217F307B8F46E
:1016C00081818430B9F0861309C005C081818430DE
:1016D000A1F0861303C08E2F9F2F08958081E80FFD
:1016E000F11DE217F30790F380E090E0089580E0A9
:1016F00090E0089580E090E0089580E090E0089503
:10170000809138278F775AC708959091DA239923CB
:1017100081F1E091D823F091D9230190F081E02D5F
:101720009481891740F5E093D623F093D723228143
:1017300033812E0F3F1FE217F307F8F491819430A5
:1017400061F49281981309C09381961306C0E093C7
:10175000D623F093D72381E008959081E90FF11DFE
:10176000E217F30758F3E093D623F093D72380E0F2
:10177000089580E0089580E0089580E00895EF9254
:10178000FF921F93CF93DF93C82F60E0BEDF182F27
:10179000882381F1A091D823B091D923EC2FF0E0D8
:1017A000EE0FFF1F12968D919C911397E80FF91F72
:1017B000E080F180D7011696ED91FC91179719956D
:1017C000682F8C2FA2DF182F8823A1F0C091D62379
:1017D000D091D72365E0CE0161DFEC01892B21F0A8
:1017E0008A810E94DD14F6CFD7011296ED91FC910B
:1017F00013971995812FDF91CF911F91FF90EF9053
:1018000008951F93CF93DF93182F7FDF882339F13B
:10181000C091D623D091D72365E0CE013FDFEC0104
:10182000892B41F04C815D816B818A81DCD68111ED
:10183000F3CF15C0A091D823B091D923E12FF0E0C8
:10184000EE0FFF1F12968D919C911397E80FF91FD1
:101850000190F081E02D0190F081E02D1995DF914C
:10186000CF911F91089526C60895CF938091DA23D2
:101870008823C1F0E091D823F091D9230190F08121
:10188000E02D8481882371F0C0E08C2F78DFCF5F5A
:10189000E091D823F091D9230190F081E02D84814B
:1018A000C81798F31092DA2381E090E08093DE234A
:1018B0009093DF23CF910895CF938091DA238823EB
:1018C00049F1A091D823B091D923ED91FC911197C2
:1018D00084818823F9F0C0E0EC2FF0E0EE0FFF1FC9
:1018E00012968D919C911397E80FF91F0190F0814A
:1018F000E02D0084F185E02D309709F01995CF5F38
:10190000A091D823B091D923ED91FC9111978481B6
:10191000C81710F3CF9108950F931F93CF93DF93C0
:10192000E6E3F7E212861386148615861686178676
:10193000808188230CF063C220913C2730913D27A1
:101940002115310509F056C251C28F7109F0A7C0A7
:1019500090913727963079F0983009F496C091111C
:101960009EC02230310509F0CAC162E070E08EED00
:1019700093E232D64DC28091382790913927292F92
:10198000332722303105A9F024F42130310541F00C
:10199000ADC123303105D9F12F30310551F1A6C148
:1019A0008091722090917320DC016C9170E014D6CC
:1019B0005DC0E0917220F09173202189821708F0B8
:1019C0009EC19927880F991F880F991FE091742055
:1019D000F0917520E80FF91F80819181FC016281EF
:1019E0007381FAD5E0913E27F0913F2782E0818311
:1019F0003DC08091762090917720009709F47FC1B7
:101A0000DC0112966D917C911397E6D52FC0992732
:101A10008130910591F058F08230910509F4F4C1BC
:101A2000039709F06CC127E087E992E209C064E0FE
:101A300070E08EE690E2D0D519C08BE590E222E10D
:101A4000382FA4E2B0E2E82FF92F819190E08D9336
:101A50009D938E2F831B8217C0F3622F660F6E5FDC
:101A60006093222070E082E290E2B6D5E6E3F7E2EE
:101A700086819781228533858217930708F0C8C134
:101A80008093402790934127C3C12130310509F04D
:101A900036C161E070E08AED93E29ED5B9C1813034
:101AA000E1F5909137279A30C1F52130310509F0E1
:101AB00026C18091DA23882309F421C1C0913A27F5
:101AC000D0913B270091D8231091D923D801ED91D3
:101AD000FC918481C81708F012C160E08C2F15DEDC
:101AE000882309F40CC1CE019927880F991FD801CA
:101AF0001296ED91FC911397E80FF91F0190F08178
:101B0000E02D86819781FC0119958093DC2361E0AB
:101B100070E08CED93E260D57BC1823009F0EFC0BC
:101B2000809137278111E4C02230310509F0E7C0E8
:101B300080913A27E0D590E08093D4239093D523E9
:101B400062E070E084ED93E247D562C18F7109F0E5
:101B500083C090913727933009F4CCC018F49130AA
:101B6000A1F07AC0953019F0993039F175C08091A3
:101B70003C2790913D27892B09F0C1C080E89BE06C
:101B8000809342279093432743C180913C279091B3
:101B90003D27892B09F0B3C08091382790913927D0
:101BA000019709F0ACC08091DE239091DF238D7FF7
:101BB0008093DE239093DF232BC180913C2790916B
:101BC0003D27892B09F09BC0FCD4882309F497C0DA
:101BD00020913827309139273327E0917220F091F6
:101BE0007320818990E08217930708F488C03DDE56
:101BF00080913827909139278093DA23882309F43C
:101C000007C199278150904C880F991F880F991F01
:101C1000E0917420F0917520E80FF91FE093D8232C
:101C2000F093D9230190F081E02D8481882309F479
:101C3000EFC0C0E060E08C2FE4DD882309F45FC0D2
:101C4000CF5FE091D823F091D9230190F081E02D6E
:101C50008481C81778F3DCC08130E1F49091372794
:101C60009B30C1F480913C2790913D27892B09F04E
:101C700046C08091DA23882309F441C0E6E3F7E205
:101C8000C481D2818C2F7BDD8823C9F16D2F8C2FED
:101C9000B8DD33C0823099F580913727813019F053
:101CA000833089F029C080913C2790913D27892B72
:101CB00031F58091382790913927892B01F5809152
:101CC0003A2734D51AC080913C2790913D27892B23
:101CD000B1F48091382790913927892B81F4C6E39C
:101CE000D7E28C8121D68C8184D607C080E005C0E4
:101CF00080E003C080E001C080E081118AC0809153
:101D000036278F71813071F58091DA23882351F164
:101D100000913A2710913B27C091D823D091D92325
:101D2000E881F98184810817E8F460E0802FEDDC18
:101D30008823C1F0F801FF27CF01880F991FEA819E
:101D4000FB81E80FF91FC081D181EE81FF811995D8
:101D5000682F802FDADC882329F0EC81FD8119952A
:101D6000811157C0809136278F71823009F040C0B1
:101D70008091DA238823B1F1A091D823B091D9239F
:101D8000ED91FC9111978481882371F1C0E0EC2FD3
:101D9000F0E0EE0FFF1F12968D919C911397E80FC4
:101DA000F91F00811181D8011696ED91FC911797CA
:101DB0001995682F8C2FA9DC882359F1D801149626
:101DC000ED91FC9115971995811123C0CF5FA091DA
:101DD000D823B091D923ED91FC9111979481C91723
:101DE000B0F217C080E015C080E013C080E011C0E1
:101DF00080E00FC0982F907609F081CFA6CD982F64
:101E0000907609F07CCFA2CE22E188E490E218CE51
:101E100081E0DF91CF911F910F910895CF93DF93D0
:101E20001F921F92CDB7DEB7811126C090910C256D
:101E30009923F9F090914727911101C0FFCF9FB7E7
:101E40009A83F8942A81E6E4F7E291819150918394
:101E50002FBF0FC0909147279F3F09F4FFCF9FB737
:101E60009983F8942981E6E4F7E291819F5F918359
:101E70002FBF80930C2505C090910C25992351F319
:101E8000F8CF0F900F90DF91CF9108950F93E8EC6A
:101E9000F4E080818F7D808380818F7D8083E0EE80
:101EA000F4E202E005931092E2241092E32400E2AF
:101EB000069300E40693E8EDF4E200E40693E6E31B
:101EC000F7E21486158616861786128613861092F8
:101ED000C9240F9108950F9385E08093C924E1EE02
:101EE000F4E204E00593E9EDF4E204E005930F91D8
:101EF00008950F9383E08093C9241092E2241092F6
:101F0000E324E0EEF4E202E006930F910895E091FD
:101F10004227F0914327309709F0199508950F93C0
:101F2000CF93DF938091C924833019F4F0DFAEDFC3
:101F30005EC08091C5249091C624C0914027D09165
:101F40004127C81BD90B71F52091C7243091C824B3
:101F5000820F931F8093C7249093C82420913C271D
:101F600030913D278217930721F08091E023882349
:101F700041F084E08093C924E8EDF4E202E00693A6
:101F800036C0E0914427F0914527309799F0199594
:101F9000882381F01092C5241092C624C091402756
:101FA000D0914127C034D10528F01092E023C0E43D
:101FB000D0E003C081E08093E023ECECF4E2C68B38
:101FC000D78B8091C5249091C62420913E273091D3
:101FD0003F27280F391F208F318FC80FD91FC0937B
:101FE000C524D093C624E0EEF4E202E00693DF912C
:101FF000CF910F910895FC018181E82FE7708E2F1A
:1020000090E0FC013197E730F105D8F48827E250E1
:10201000FF4F8F4F0C94DE1880E190E0089580E22E
:1020200090E0089580E490E0089580E890E00895BD
:1020300080E091E0089580E092E008958FEF93E0D2
:10204000089588E090E00895282F2F7030E0220F47
:10205000331F082E000C990B8827990F881F99278A
:10206000820F931F02979C01220F331F220F331FF1
:10207000220F331F820F931F8F599B4D08950F938B
:10208000CF938091CC0480FF64C081E08093CC0426
:10209000E8EDF4E200E80693E0EEF4E200E80693EF
:1020A0008093CA04E8EDF4E200E106938091C9242C
:1020B000882329F08350823008F429DFE7DE8091FD
:1020C000DA249091DB24089709F045C088E0E5E820
:1020D000F4E2A6E3B7E201900D928A95E1F7E8EC0D
:1020E000F4E080818062808380818062808314DC60
:1020F000C82F811103C0EFDEC1E02EC080913627CA
:1021000088236CF41092C7241092C8241092C5241E
:102110001092C62482E08093C92401DF1DC0809103
:102120003C2790913D27892B11F4E3DE15C01092D6
:10213000C7241092C8241092C5241092C62481E0AE
:102140008093C924E8EDF4E202E0069300E20693EE
:1021500003C0C0E001C0C1E08C2FCF910F91089562
:102160008F929F92AF92BF92DF92EF92FF920F9366
:102170001F93CF93DF93D82E67DF8C01BD2CBB1C40
:10218000BB24BB1CCD2DCF70D0E0CC0FDD1FCB0D01
:10219000D11DCE01880F991F880F991F880F991F95
:1021A0009C0128523B4D7901C90125DF4C01BB2020
:1021B00009F479C0FE01EE0FFF1FEE0FFF1FEE0FB7
:1021C000FF1FE453FB4D22893389D80115968D9169
:1021D0009C911697820F931F15968D939C9316973B
:1021E00013962D913C9114978217930709F445C0DB
:1021F000281B390B2115B4E03B0738F02FEF33E0F3
:10220000C901B401C7D7281B390BF801808181FFB0
:1022100009C0C901B401BED741E0892B09F040E0F3
:10222000842F01C080E0D8019C9180FB91F99C93A0
:10223000FE01EE0FFF1FEE0FFF1FEE0FFF1FE45317
:10224000FB4D128A138A2687378711962D913C9170
:10225000129715968D919C911697820F931FCC0F14
:10226000DD1FCC0FDD1FCC0FDD1FC452DB4D88837B
:102270009983F70102E00693E4C0D8018C9181FFB5
:10228000CDC08D7F8C93CC0FDD1FCC0FDD1FCC0F0D
:10229000DD1FC453DB4D1A8A1B8A1E861F86F70179
:1022A00002E00693CEC0FE01EE0FFF1FEE0FFF1FF0
:1022B000EE0FFF1FE453FB4DA684B784D8018C9129
:1022C00082FF19C01196ED91FC91129715962D91F0
:1022D0003C91169713968D919C911497B4015AD7FF
:1022E000B0E4DB9EB00111246F557C4DAC01CF01F1
:1022F000820F931F6CD7F801258136812A0D3B1D73
:1023000025833683838194818217930768F48583BC
:102310009683CC0FDD1FCC0FDD1FCC0FDD1FC45308
:10232000DB4D8A899B897AC0FE01EE0FFF1FEE0FFD
:10233000FF1FEE0FFF1FE453FB4D428953894A15DF
:102340005B0509F06BC02817390709F467C0AC01B9
:10235000421B530B9A01211554E0350750F02FEF23
:1023600033E0C901B40116D7D901A81BB90BCD01BF
:1023700007C0C901B4010ED7F901E81BF90BCF0161
:10238000FE01EE0FFF1FEE0FFF1FEE0FFF1FE453C6
:10239000FB4D168617868815990500F5D8018C9196
:1023A00084608C93B0E4DB9EC00111248F559C4D5A
:1023B000FE01EE0FFF1FEE0FFF1FEE0FFF1FE45297
:1023C000FB4D80839183CC0FDD1FCC0FDD1FCC0F25
:1023D000DD1FC453DB4D8A8A9B8A1CC0F8014181F2
:1023E000528125813681240F351FFE01EE0FFF1F1C
:1023F000EE0FFF1FEE0FFF1FE452FB4D20833183D2
:10240000CC0FDD1FCC0FDD1FCC0FDD1FC453DB4D08
:102410008A8B9B8BF70102E0069313C0D8018C9145
:1024200080FF0FC08E7F8C931796ED91FC911897CB
:10243000309739F015966D917C9116974D2D80E06F
:102440001995DF91CF911F910F91FF90EF90DF9041
:10245000BF90AF909F908F9008951F93CF93DF937D
:102460001F92CDB7DEB78FB78983F894198181E0C9
:10247000D5DCEAECF4E080E4808380E28083E1EC68
:10248000F4E0808181608083A9ECB4E08C9182606B
:102490008C93E8ECF4E08081806480838C9181608F
:1024A0008C938081806880831FBF0F90DF91CF91D4
:1024B0001F9108950F931F93CF93DF931F921F9245
:1024C000CDB7DEB700E610E0F801108280E302D558
:1024D000E0ECF4E080818064808381E0F801808317
:1024E0008FB78A83F8941A81ECECF4E21586158A8A
:1024F000158E15A215A615AAE1E6F4E280818E7F5D
:102500008083EAE6F4E280818E7F8083E3E7F4E271
:1025100080818E7F8083ECE7F4E280818E7F8083F0
:102520006AE170E082E026D68F3F19F08093FA04CA
:1025300003C08FE18093FA046BE170E082E01AD669
:102540008F3F19F08093FB0403C08FE18093FB045D
:10255000E0ECF4E080818260808380818068808309
:1025600080818061808388ED94E286839783808177
:10257000806280838FEF8093C504E8ECF4E0808173
:102580008160808310920C2580914B278F3F09F446
:10259000FFCF8FB78983F8949981E6E4F7E28581CC
:1025A0008F5F85839FBF59DF1FBF0F900F90DF9113
:1025B000CF911F910F91089580E008958093C304F7
:1025C00008958091C304089580910825909109256C
:1025D000089580E090E00895E6E3F7E28087918730
:1025E000628773870895282F2F7030E0220F331FE2
:1025F000082E000C990B8827990F881F9927820FA6
:10260000931FFC01EE0FFF1FEE0FFF1FEE0FFF1FCA
:10261000E453FB4D2585207C09F069C0637061306F
:1026200011F018F404C020EC03C020E801C020E43D
:1026300040385105E9F050F440325105A9F04034DA
:102640005105A1F040315105D9F40CC0411532E0DB
:10265000530791F04F3F33E0530781F0411551404C
:1026600079F408C041E00DC042E00BC043E009C06E
:1026700044E007C045E005C046E003C047E001C0B4
:1026800040E0FC01EE0FFF1FEE0FFF1FEE0FFF1FDC
:10269000E453FB4D158636E03487242B2587FC0157
:1026A000EE0FFF1FEE0FFF1FEE0FFF1FE453FB4D5A
:1026B0002585207C203C69F4FC01EE0FFF1FEE0F06
:1026C000FF1FEE0FFF1FE453FB4D258527702730BA
:1026D00081F0880F991F880F991F880F991FFC019F
:1026E000E453FB4D85858062858781E0089580E015
:1026F000089581E00895E82FEF70F0E0EE0FFF1FDE
:10270000082E000C990B8827990F881F9927E80F2E
:10271000F91FEE0FFF1FEE0FFF1FEE0FFF1FE45319
:10272000FB4D858582FB882780F908950F93282F1C
:102730002F7030E0A901440F551F282F082E000CE0
:10274000330B2227330F221F3327240F351FA901F4
:10275000440F551F440F551F440F551FFA01E852EF
:10276000FB4D01E00693FA01E453FB4D958592FF82
:1027700011C0FA01E453FB4D95859B7F958764DC7E
:10278000FC01808180FF06C08E7F80830780F085FA
:10279000E02D199581E00F9108955F926F927F92DD
:1027A0008F929F92AF92BF92CF92DF92EF92FF9261
:1027B0000F931F93CF93DF931F92CDB7DEB7782E81
:1027C000662E4A01590140DC6C01572C551C5524DA
:1027D000551C872D8F70E82EF12CEE0CFF1CE50C9C
:1027E000F11CF701EE0FFF1FEE0FFF1FEE0FFF1F93
:1027F000E453FB4D8585807C09F481C0F701EE0F21
:10280000FF1FEE0FFF1FEE0FFF1FE453FB4D8585EB
:10281000807C803C61F0F701EE0FFF1FEE0FFF1F81
:10282000EE0FFF1FE453FB4D858582FD6AC08FB715
:102830008983F8948981F601908190FF03C08FBF4E
:10284000512C60C0F6019081916090838FBF81828E
:102850009282A382B4821582168207831087611048
:1028600006C091E0A114B10419F090E001C091E01C
:10287000F601808190FB81F98B7F8083552061F088
:10288000F701EE0FFF1FEE0FFF1FEE0FFF1FE453C8
:10289000FB4D128A138A2EC0F701EE0FFF1FEE0FB9
:1028A000FF1FEE0FFF1FE453FB4D8585807C803CAE
:1028B000A1F4C701880F991F880F991F880F991FCE
:1028C00088529B4D98DBBC01C50164D4892B29F04B
:1028D000F60180818E7F808315C0F701EE0FFF1F08
:1028E000EE0FFF1FEE0FFF1FE453FB4D16861786FA
:1028F000128A138A872D34DC5524539403C0512C3B
:1029000001C0512C852D0F90DF91CF911F910F9118
:10291000FF90EF90DF90CF90BF90AF909F908F90FF
:102920007F906F905F900895FF920F931F93CF93C6
:10293000DF93182FF82EFF1CFF24FF1CC82FCF7029
:10294000D0E0CC0FDD1FCF0DD11D7EDBDC01FE0101
:10295000EE0FFF1FEE0FFF1FEE0FFF1FE852FB4DA4
:1029600002E005938C9180FF22C08E7F8C93179696
:10297000ED91FC9118973097D1F0FF2059F0CC0FD2
:10298000DD1FCC0FDD1FCC0FDD1FC453DB4D6A896B
:102990007B890AC0CC0FDD1FCC0FDD1FCC0FDD1FE4
:1029A000C453DB4D6E857F85412F81E01995DF9102
:1029B000CF911F910F91FF900895CF93C82FB4DF4F
:1029C000EC2FEF70F0E0EE0FFF1F8C2FCC0F990B68
:1029D0008827990F881F9927E80FF91FEE0FFF1F0F
:1029E000EE0FFF1FEE0FFF1FE453FB4D1586CF9137
:1029F0000895E82FEF70F0E0EE0FFF1F282F082E4C
:102A0000000C330B2227330F221F3327E20FF31F53
:102A1000EE0FFF1FEE0FFF1FEE0FFF1FE453FB4DE6
:102A200095859460958780DF81E008951F920F92CD
:102A30000FB60F92112408B60F9218BE09B60F9266
:102A400019BE0BB60F921BBE0F932F933F934F935C
:102A50005F936F937F938F939F93AF93BF93EF9306
:102A6000FF938091CB04882334F480E88093CA04D8
:102A70000E945C0C86C08091CB0482FF20C084E061
:102A80008093CA048091E02486FF7BC08091CC04AF
:102A900081FD77C0F4DA811174C08091C92481303E
:102AA00011F427DA6EC0843009F06BC0E1EEF4E275
:102AB00004E00593E9EDF4E204E0059362C080913F
:102AC000CB0481FF59C082E08093CA048091D8244E
:102AD00086FF57C08091CC0481FD53C0D0DA8111AC
:102AE00050C08091C924823041F484E08093C9248D
:102AF000E8EDF4E202E0069344C0833009F041C0FF
:102B0000E1EEF4E204E00593E9EDF4E204E005937C
:102B100038C080E18093CA0481E006DF81E804DFE9
:102B200082E002DF82E800DF0E94350C1092C304CD
:102B3000ECECF4E2158696E0948783E48587158AA9
:102B4000948B858B85E894E2808B918B9FD919C0FB
:102B50008091CB0486FF06C080E48093CA0480E0A5
:102B60005DD90FC08091CB0485FF0BC080E28093BC
:102B7000CA0481E053D905C08091CB0484FDC9CF3C
:102B8000E7CFFF91EF91BF91AF919F918F917F918F
:102B90006F915F914F913F912F910F910F900BBECD
:102BA0000F9009BE0F9008BE0F900FBE0F901F90A0
:102BB00018951F920F920FB60F92112408B60F921C
:102BC00018BE09B60F9219BE0AB60F921ABE0BB6FE
:102BD0000F921BBE0F931F932F933F934F935F93BF
:102BE0006F937F938F939F93AF93BF93CF93DF9315
:102BF000EF93FF938091CC0481FD03C040DA8111F3
:102C0000C3C082E08093CC048091C5048195880F75
:102C1000E8EDF4E2E81BF10920813181285D3442BE
:102C2000369527953695279536952795822F869543
:102C300020FD02C090E001C090E8890FE82FEF70FE
:102C4000F0E0EE0FFF1F282F082E000C330B222779
:102C5000330F221F3327E20FF31FDF01AA0FBB1F21
:102C6000AA0FBB1FAA0FBB1FA453BB4D1C969C9160
:102C700095FF8AC0EE0FFF1FEE0FFF1FEE0FFF1F25
:102C8000E852FB4D00E20693811179C08091C9247E
:102C9000843019F43CD9FAD877C00091DA24109125
:102CA000DB248091402790914127C091C524D09189
:102CB000C6249E01200F311F8217930718F48C0140
:102CC0000C1B1D0B80913E2790913F27A80165E8C2
:102CD00074E28C0F9D1F7BD2C00FD11FC093C524FF
:102CE000D093C6240034110569F48091C7249091D3
:102CF000C8248C0F9D1F20913C2730913D278217BF
:102D0000930780F0E6E3F7E2C287D3870684F7856E
:102D1000E02D309729F01995811102C0DCD834C01C
:102D2000E8D832C08091402790914127C817D90731
:102D3000F9F4E0914427F0914527309711F4CBD86E
:102D400023C01995811102C0C6D81EC02091C72486
:102D50003091C8248091C5249091C624820F931F7E
:102D60008093C7249093C8241092C5241092C6243F
:102D7000E8EDF4E202E0069300E2069305C0803835
:102D800011F4CDD801C0ECD9FF91EF91DF91CF9133
:102D9000BF91AF919F918F917F916F915F914F9173
:102DA0003F912F911F910F910F900BBE0F900ABE74
:102DB0000F9009BE0F9008BE0F900FBE0F901F908E
:102DC00018950F931F93CF93DF93CDB7DEB7279757
:102DD000CDBFDEBF8FEF8093700080937100809332
:102DE00072008093730080937400809375008093C9
:102DF00076006CE170E082E0BDD18A836DE170E025
:102E000082E0B8D1898389819A81019621F480E496
:102E100093E289839A8389819A818B839C83E0E6FC
:102E2000F0E082838C8183838FB78F83F8949F81B6
:102E3000E0E5F0E08081826080839FBF818181FF37
:102E4000FDCF8FB78D83F8949D8100E510E0D80108
:102E500016968C911697897F16968C931697E0E6B6
:102E6000F0E080E885838BEB868316968C9116972D
:102E7000846016968C938081816080839FBF61E01F
:102E800080E490E081D18FB78E83F8949E81F80121
:102E900080818E7F80839FBF2796CDBFDEBFDF916D
:102EA000CF911F910F910895CF93DF931F92CDB7CC
:102EB000DEB79FB79983F8949981E82FF0E0E05945
:102EC000FF4F60958081682360839FBF0F90DF91E3
:102ED000CF910895CF93DF931F921F92CDB7DEB7A6
:102EE000863011F060E001C068E18091510081FD01
:102EF0002AC08FB78A83F8949A81E0E5F0E0808158
:102F0000826080839FBF818181FFFDCF8FB78983DE
:102F1000F8949981A0E5B0E016968C911697897F78
:102F200016968C931697E0E6F0E080E885838BEBAD
:102F3000868316968C911697846016968C93808162
:102F4000816080839FBF636084E490E01DD160E472
:102F500080E0AADF0F900F90DF91CF910895DC0100
:102F6000E0ECF1E097859923ECF3ECECF1E0808163
:102F700088608083B05F8C919081977F9083089563
:102F8000DA01A901E0ECF1E037853323ECF34115D8
:102F9000510579F04A0F5B1F0BB68BBFFB013791D0
:102FA0000BBE3D936F5F7F4F8F4F9F4FA417B507A9
:102FB00099F708952F923F924F925F926F927F926E
:102FC0008F929F92AF92BF92CF92DF92EF92FF9239
:102FD0000F931F93CF93DF93CDB7DEB72A97CDBF63
:102FE000DEBF2B013C011A015901DC01CB0188270E
:102FF000232B09F4A9C08F839887A987BA878824CF
:103000008A94982C4B825C826D827E828091CF0163
:103010008823E4F3CF80D884E984FA8421E0C20EC7
:10302000D21EE11CF11C4F80588469847A843FEFE2
:10303000431A530A630A730A10E0C301B2016150D4
:10304000710981099109002369F00BB68BBFFB015F
:10305000279136910BBE29833A832F3F3F4F21F0B2
:1030600011E002C089829A82A114B10451F12B812E
:103070003C814D815E81621773078407950709F0D3
:1030800058C031E0A31AB108D1012D911D01298347
:10309000A114B10429F44B825C826D827E8211C03E
:1030A000B1E0AB1AB108A30192012F5F3F4F4F4F20
:1030B0005F4F2B833C834D835E83D1012D911D0196
:1030C0002A8349815A810F943000B2E04B0E511C83
:1030D000611C711C4C145D046E047F0409F0ADCFBB
:1030E0007501112361F08091CF018823E4F345E25B
:1030F0006F81788589859A850F9421000BC0809116
:10310000CF018823E4F344E26F81788589859A852D
:103110000F9421002F81388549855A853F5F4F4F95
:103120005F4F2F83388749875A87EF2809F06ECF82
:103130000BC02B813C814D815E8142165306640693
:10314000750609F0BECFACCF2A96CDBFDEBFDF91AA
:10315000CF911F910F91FF90EF90DF90CF90BF9094
:10316000AF909F908F907F906F905F904F903F9027
:103170002F9008954091CA01E62FF72F8093CA013E
:1031800084914093CA0108951BBEFC0128ED24BF21
:1031900060830895AA1BBB1B51E107C0AA1FBB1F78
:1031A000A617B70710F0A61BB70B881F991F5A95D3
:1031B000A9F780959095BC01CD010895EE0FFF1FF2
:1031C000881F8BBF0790F691E02D1BBE1994FB0161
:1031D000DC0102C001900D9241505040D8F7089593
:1031E000FB01DC018D91019080190110D9F3990B3D
:1031F0000895CF93DF93CDB7DEB7AE014A5F5F4F3F
:10320000FA0161917191AF0180914E2790914F2702
:1032100033D0DF91CF9108950F931F93CF93DF9316
:10322000E0914E27F0914F27238121FF1BC08C0195
:10323000D0E0C0E0F80181918F0160914E2770913C
:103240004F27DB011896ED91FC911997882331F0F7
:103250001995892B79F3DFEFCFEFECCF8AE0199541
:10326000892B19F08FEF9FEF02C08D2F9C2FDF91DC
:10327000CF911F910F9108952F923F924F925F929D
:103280006F927F928F929F92AF92BF92CF92DF9276
:10329000EF92FF920F931F93CF93DF93CDB7DEB7DB
:1032A0002C97CDBFDEBF7C016B018A01FC01168229
:1032B0001782838181FFB0C1CE0101964C01F701D5
:1032C0009381F60193FD859193FF81916F0188238E
:1032D00009F49EC1853239F493FD859193FF819164
:1032E0006F01853221F4B70190E0C4D1E8CF512CB1
:1032F000312C20E02032A0F48B3269F030F480329F
:1033000059F0833269F420612CC08D3239F080335A
:1033100039F4216026C02260246023C0286021C0C7
:1033200027FD27C030ED380F3A3078F426FF06C06D
:10333000FAE05F9E300D1124532E13C08AE0389EB0
:10334000300D1124332E20620CC08E3221F426FD64
:103350005FC1206406C08C3611F4206802C0883634
:1033600041F4F60193FD859193FF81916F018111E5
:10337000C1CF982F9F7D9554933028F40C5F1F4F39
:10338000FFE3F9830DC0833631F0833771F0833565
:1033900009F057C021C0F801808189830E5F1F4F5B
:1033A00044244394512C540114C03801F2E06F0EB0
:1033B000711CF801A080B18026FF03C0652D70E06C
:1033C00002C06FEF7FEFC5012C8749D12C0183012B
:1033D0002C852F77222E16C03801F2E06F0E711C5B
:1033E000F801A080B18026FF03C0652D70E002C007
:1033F0006FEF7FEFC5012C8727D12C012C8520682A
:10340000222E830123FC19C0832D90E04816590613
:10341000A0F4B70180E290E02DD13A94F5CFF50108
:1034200027FC859127FE81915F01B70190E022D1B1
:1034300031103A94F1E04F1A51084114510479F7D0
:10344000DEC0843611F0893631F5F80127FF07C058
:1034500060817181828193810C5F1F4F08C0608100
:103460007181072E000C880B990B0E5F1F4F2F7672
:10347000722E97FF09C090958095709561957F4F4A
:103480008F4F9F4F2068722E2AE030E0A4012AD18E
:10349000A82EA81843C0853729F42F7EB22E2AE023
:1034A00030E025C0F22FF97FBF2E8F36C1F018F41F
:1034B000883579F0ADC0803719F0883721F0A8C081
:1034C0002F2F2061B22EB4FE0DC08B2D8460B82E3C
:1034D00009C024FF0AC09F2F9660B92E06C028E0BD
:1034E00030E005C020E130E002C020E132E0F80128
:1034F000B7FE07C060817181828193810C5F1F4F8D
:1035000006C06081718180E090E00E5F1F4FA401D2
:10351000E9D0A82EA818FB2DFF777F2E76FE0BC0D2
:10352000372D3E7FA51450F474FE0AC072FC08C00B
:10353000372D3E7E05C0BA2C372D03C0BA2C01C0F2
:10354000B52C34FF0DC0FE01EA0DF11D80818033E2
:1035500011F4397E09C032FF06C0B394B39404C09D
:10356000832F867809F0B39433FD12C030FF06C074
:103570005A2CB31418F4530C5B18B32CB31460F426
:10358000B70180E290E03C8775D0B3943C85F6CFDC
:10359000B31410F43B1801C0312C34FF11C0B70133
:1035A00080E390E03C8766D03C8532FF16C031FD59
:1035B00003C088E790E002C088E590E0B7010CC046
:1035C000832F867851F031FF02C08BE201C080E288
:1035D00037FD8DE2B70190E04DD0A51430F4B7016E
:1035E00080E390E047D05A94F8CFAA94F401EA0D12
:1035F000F11D8081B70190E03DD0A110F6CF3320BE
:1036000009F45DCEB70180E290E034D03A94F7CF70
:10361000F7018681978102C08FEF9FEF2C96CDBF77
:10362000DEBFDF91CF911F910F91FF90EF90DF9060
:10363000CF90BF90AF909F908F907F906F905F9052
:103640004F903F902F900895FC010590615070407D
:103650000110D8F7809590958E0F9F1F0895FC015B
:103660006150704001900110D8F7809590958E0FB1
:103670009F1F08950F931F93CF93DF93FB01238127
:1036800021FD03C08FEF9FEF28C022FF16C04681A7
:103690005781248135814217530744F4A081B181B9
:1036A0009D012F5F3F4F208331838C93268137818B
:1036B0002F5F3F4F2683378310C0EB01092F182F50
:1036C0000084F185E02D1995892BE1F68E819F818B
:1036D00001968E839F83812F902FDF91CF911F9131
:1036E0000F910895FA01AA27283051F1203181F174
:1036F000E8946F936E7F6E5F7F4F8F4F9F4FAF4FFA
:10370000B1E03ED0B4E03CD0670F781F891F9A1F0C
:10371000A11D680F791F8A1F911DA11D6A0F711DC0
:10372000811D911DA11D20D009F468943F912AE0CC
:10373000269F11243019305D3193DEF6CF010895B4
:10374000462F4770405D4193B3E00FD0C9F7F6CFE5
:10375000462F4F70405D4A3318F0495D31FD4052AD
:10376000419302D0A9F7EACFB4E0A6959795879543
:1037700077956795BA95C9F7009761057105089522
:103780009B01AC010A2E06945795479537952795CE
:10379000BA95C9F7620F731F841F951FA01D089566
:0437A000F894FFCFCB
:1037A4000000000200000000BA06000000000B0A3E
:1037B4008B093F0841086C098E0839084308410801
:1037C40000000003000000000000000000000000F2
:1037D40000000000000000000000000000000000E5
:1037E4000000000000000000444959205265666C46
:1037F4006F77204F76656E205631005468654169B5
:103804006D6C657373456C656374726F6E0004034D
:103814000904C4207820000080207C2018200E2079
:1038240009024300020100C0000904000001020271
:1038340001000524001001042402020524060001ED
:103844000524010301070582034000100904010057
:10385400020A000000070581024000000705020279
:10386400400000001201000202000040EB030424A7
:1038740000010102030153544F5050454400535476
:1038840041545553204D5553542042453A00257315
:103894002025730D0A0052554E4E494E470054459B
:1038A400535431005354415455532043414E4E4FC9
:1038B400542042453A00202020202020202020208F
:1038C40020202020202020202020202020202020F4
:1038D40020202020200D004C4F474F4E00252E382D
:1038E400730D0A004C4F474F46460048544F4E0054
:1038F40048544F46460048424F4E0048424F4646C1
:103904000046414E4F4E00424C4F4E00424C4F46F3
:10391400460052554E0053544F500053544F50419B
:103924004C4C00554E4B4E4F574E20434F4D4D413E
:103934004E440D0054657374320D0054454D5000CF
:10394400252E33730D0A0054494D45004854004850
:10395400420046414E00424C0050524F46005354E0
:1039640041540043414C480043414C4D0043414CB9
:103974004C00424C4F4E540050524F46530050435B
:10398400464700554E4B4E4F574E205155455259C0
:1039940020434F4D4D414E440D00252E3873203D9C
:1039A40020252E3332730D0A005044454C00554EE9
:1039B4004B4E4F574E2053455420434F4D4D414E8F
:1039C400440D0052756E6E696E67207465737420C1
:1039D400666F7220256420706167652873290D0A5B
:1039E40000506167652025642057726974654275CB
:1039F400666665725B25645D203D2025640D0A00C2
:103A04005665726966790D005061676520256420EA
:103A1400526561644275666665725B25645D203D2E
:103A24002025640D0A00446F6E650D0025643A205C
:103A3400253032780D0A0031322E2E2E45460000F4
:020000022000DC
:100000003BB70B0143E213C0EE27FF2719BEDC010B
:1000100043E24093CA0150E82DE90D901D902093D2
:100020003400E89532965A95C1F711240895FC01E1
:100030004093CA012DE920933400E89511243BBF79
:1000400008959BB78BBFFB018091CA014093CA0101
:100050007DE970933400E8958093CA019BBF0895B1
:100060002091CF0127FDFCCF9BB78BBFFB01809177
:10007000CA0123E22093CA010A01E8951124809362
:06008000CA019BBF0895B8
:00000001FF
